{
  "contractName": "Alignment",
  "abi": [
    {
      "constant": true,
      "inputs": [],
      "name": "targetFramework",
      "outputs": [
        {
          "name": "",
          "type": "string"
        }
      ],
      "payable": false,
      "stateMutability": "view",
      "type": "function"
    },
    {
      "constant": true,
      "inputs": [],
      "name": "targetUrl",
      "outputs": [
        {
          "name": "",
          "type": "string"
        }
      ],
      "payable": false,
      "stateMutability": "view",
      "type": "function"
    },
    {
      "constant": true,
      "inputs": [],
      "name": "targetCode",
      "outputs": [
        {
          "name": "",
          "type": "string"
        }
      ],
      "payable": false,
      "stateMutability": "view",
      "type": "function"
    },
    {
      "constant": true,
      "inputs": [],
      "name": "targetName",
      "outputs": [
        {
          "name": "",
          "type": "string"
        }
      ],
      "payable": false,
      "stateMutability": "view",
      "type": "function"
    },
    {
      "inputs": [
        {
          "name": "targetNamep",
          "type": "string"
        },
        {
          "name": "targetUrl1",
          "type": "string"
        },
        {
          "name": "targetFramework1",
          "type": "string"
        },
        {
          "name": "targetCode1",
          "type": "string"
        }
      ],
      "payable": false,
      "stateMutability": "nonpayable",
      "type": "constructor"
    }
  ],
  "bytecode": "0x6060604052341561000f57600080fd5b6040516106a23803806106a283398101604052808051820191906020018051820191906020018051820191906020018051820191905050836000908051906020019061005c9291906100ab565b5082600190805190602001906100739291906100ab565b50816002908051906020019061008a9291906100ab565b5080600390805190602001906100a19291906100ab565b5050505050610150565b828054600181600116156101000203166002900490600052602060002090601f016020900481019282601f106100ec57805160ff191683800117855561011a565b8280016001018555821561011a579182015b828111156101195782518255916020019190600101906100fe565b5b509050610127919061012b565b5090565b61014d91905b80821115610149576000816000905550600101610131565b5090565b90565b6105438061015f6000396000f300606060405260043610610062576000357c0100000000000000000000000000000000000000000000000000000000900463ffffffff1680633742cacf1461006757806346c053b1146100f5578063f81f54c914610183578063fdfd591714610211575b600080fd5b341561007257600080fd5b61007a61029f565b6040518080602001828103825283818151815260200191508051906020019080838360005b838110156100ba57808201518184015260208101905061009f565b50505050905090810190601f1680156100e75780820380516001836020036101000a031916815260200191505b509250505060405180910390f35b341561010057600080fd5b61010861033d565b6040518080602001828103825283818151815260200191508051906020019080838360005b8381101561014857808201518184015260208101905061012d565b50505050905090810190601f1680156101755780820380516001836020036101000a031916815260200191505b509250505060405180910390f35b341561018e57600080fd5b6101966103db565b6040518080602001828103825283818151815260200191508051906020019080838360005b838110156101d65780820151818401526020810190506101bb565b50505050905090810190601f1680156102035780820380516001836020036101000a031916815260200191505b509250505060405180910390f35b341561021c57600080fd5b610224610479565b6040518080602001828103825283818151815260200191508051906020019080838360005b83811015610264578082015181840152602081019050610249565b50505050905090810190601f1680156102915780820380516001836020036101000a031916815260200191505b509250505060405180910390f35b60028054600181600116156101000203166002900480601f0160208091040260200160405190810160405280929190818152602001828054600181600116156101000203166002900480156103355780601f1061030a57610100808354040283529160200191610335565b820191906000526020600020905b81548152906001019060200180831161031857829003601f168201915b505050505081565b60018054600181600116156101000203166002900480601f0160208091040260200160405190810160405280929190818152602001828054600181600116156101000203166002900480156103d35780601f106103a8576101008083540402835291602001916103d3565b820191906000526020600020905b8154815290600101906020018083116103b657829003601f168201915b505050505081565b60038054600181600116156101000203166002900480601f0160208091040260200160405190810160405280929190818152602001828054600181600116156101000203166002900480156104715780601f1061044657610100808354040283529160200191610471565b820191906000526020600020905b81548152906001019060200180831161045457829003601f168201915b505050505081565b60008054600181600116156101000203166002900480601f01602080910402602001604051908101604052809291908181526020018280546001816001161561010002031660029004801561050f5780601f106104e45761010080835404028352916020019161050f565b820191906000526020600020905b8154815290600101906020018083116104f257829003601f168201915b5050505050815600a165627a7a7230582072a4d7816529366a34b76a099867681e4b12e64ea0951b28df228290883886870029",
  "source": "pragma solidity ^0.4.18;\n\ncontract Alignment {\n    string public targetName;\n    string public targetUrl;\n    string public targetFramework;\n    string public targetCode;\n\n    function Alignment(string targetNamep, string targetUrl1, string targetFramework1, string targetCode1) public {\n        targetName = targetNamep;\n        targetUrl = targetUrl1;\n        targetFramework = targetFramework1;\n        targetCode = targetCode1;       \n    }\n}",
  "sourcePath": "/Users/marc/truffle/innovatielab/drizzle-demo/contracts/Alignment.sol",
  "compiler": {
    "name": "solc",
    "version": "0.4.18+commit.9cf6e910.Emscripten.clang"
  },
  "schemaVersion": "1.0.1",
  "updatedAt": "2018-03-04T16:22:52.433Z"
}