{
  "contractName": "Assertion",
  "abi": [
    {
      "constant": true,
      "inputs": [],
      "name": "name",
      "outputs": [
        {
          "name": "",
          "type": "string"
        }
      ],
      "payable": false,
      "stateMutability": "view",
      "type": "function"
    },
    {
      "constant": true,
      "inputs": [],
      "name": "issuer",
      "outputs": [
        {
          "name": "",
          "type": "address"
        }
      ],
      "payable": false,
      "stateMutability": "view",
      "type": "function"
    },
    {
      "constant": false,
      "inputs": [
        {
          "name": "recipient1",
          "type": "address"
        }
      ],
      "name": "setRecipient",
      "outputs": [],
      "payable": false,
      "stateMutability": "nonpayable",
      "type": "function"
    },
    {
      "constant": true,
      "inputs": [],
      "name": "typeOb",
      "outputs": [
        {
          "name": "",
          "type": "string"
        }
      ],
      "payable": false,
      "stateMutability": "view",
      "type": "function"
    },
    {
      "constant": false,
      "inputs": [
        {
          "name": "issuer1",
          "type": "address"
        }
      ],
      "name": "setIssuer",
      "outputs": [],
      "payable": false,
      "stateMutability": "nonpayable",
      "type": "function"
    },
    {
      "constant": true,
      "inputs": [],
      "name": "recipient",
      "outputs": [
        {
          "name": "",
          "type": "address"
        }
      ],
      "payable": false,
      "stateMutability": "view",
      "type": "function"
    },
    {
      "constant": true,
      "inputs": [],
      "name": "issuedOn",
      "outputs": [
        {
          "name": "",
          "type": "uint256"
        }
      ],
      "payable": false,
      "stateMutability": "view",
      "type": "function"
    },
    {
      "constant": true,
      "inputs": [],
      "name": "badge",
      "outputs": [
        {
          "name": "",
          "type": "address"
        }
      ],
      "payable": false,
      "stateMutability": "view",
      "type": "function"
    },
    {
      "constant": false,
      "inputs": [
        {
          "name": "verificationType1",
          "type": "string"
        }
      ],
      "name": "setVerificationType",
      "outputs": [],
      "payable": false,
      "stateMutability": "nonpayable",
      "type": "function"
    },
    {
      "constant": true,
      "inputs": [],
      "name": "id",
      "outputs": [
        {
          "name": "",
          "type": "string"
        }
      ],
      "payable": false,
      "stateMutability": "view",
      "type": "function"
    },
    {
      "constant": true,
      "inputs": [],
      "name": "context",
      "outputs": [
        {
          "name": "",
          "type": "string"
        }
      ],
      "payable": false,
      "stateMutability": "view",
      "type": "function"
    },
    {
      "constant": true,
      "inputs": [],
      "name": "verificationType",
      "outputs": [
        {
          "name": "",
          "type": "string"
        }
      ],
      "payable": false,
      "stateMutability": "view",
      "type": "function"
    },
    {
      "constant": false,
      "inputs": [
        {
          "name": "badge1",
          "type": "address"
        }
      ],
      "name": "setBadge",
      "outputs": [],
      "payable": false,
      "stateMutability": "nonpayable",
      "type": "function"
    },
    {
      "inputs": [
        {
          "name": "typeOb1",
          "type": "string"
        },
        {
          "name": "id1",
          "type": "string"
        },
        {
          "name": "name1",
          "type": "string"
        },
        {
          "name": "issuer1",
          "type": "address"
        },
        {
          "name": "badge1",
          "type": "address"
        },
        {
          "name": "recipient1",
          "type": "address"
        }
      ],
      "payable": false,
      "stateMutability": "nonpayable",
      "type": "constructor"
    }
  ],
  "bytecode": "0x60606040526040805190810160405280601e81526020017f68747470733a2f2f773369642e6f72672f6f70656e6261646765732f76320000815250600890805190602001906200005192919062000233565b5034156200005e57600080fd5b60405162000ff038038062000ff083398101604052808051820191906020018051820191906020018051820191906020018051906020019091908051906020019091908051906020019091905050620000cd868686620001a26401000000000262000c47176401000000009004565b4260038190555082600160006101000a81548173ffffffffffffffffffffffffffffffffffffffff021916908373ffffffffffffffffffffffffffffffffffffffff16021790555081600260006101000a81548173ffffffffffffffffffffffffffffffffffffffff021916908373ffffffffffffffffffffffffffffffffffffffff160217905550806000806101000a81548173ffffffffffffffffffffffffffffffffffffffff021916908373ffffffffffffffffffffffffffffffffffffffff160217905550505050505050620002e2565b33600560006101000a81548173ffffffffffffffffffffffffffffffffffffffff021916908373ffffffffffffffffffffffffffffffffffffffff1602179055508160069080519060200190620001fb92919062000233565b5082600790805190602001906200021492919062000233565b5080600990805190602001906200022d92919062000233565b50505050565b828054600181600116156101000203166002900490600052602060002090601f016020900481019282601f106200027657805160ff1916838001178555620002a7565b82800160010185558215620002a7579182015b82811115620002a657825182559160200191906001019062000289565b5b509050620002b69190620002ba565b5090565b620002df91905b80821115620002db576000816000905550600101620002c1565b5090565b90565b610cfe80620002f26000396000f3006060604052600436106100c5576000357c0100000000000000000000000000000000000000000000000000000000900463ffffffff16806306fdde03146100ca5780631d143848146101585780633bbed4a0146101ad5780634391c74a146101e657806355cc4e571461027457806366d003ac146102ad57806377dc74b21461030257806391d768de1461032b578063976f3b2314610380578063af640d0f146103dd578063d0496d6a1461046b578063d8210936146104f9578063ff967e2e14610587575b600080fd5b34156100d557600080fd5b6100dd6105c0565b6040518080602001828103825283818151815260200191508051906020019080838360005b8381101561011d578082015181840152602081019050610102565b50505050905090810190601f16801561014a5780820380516001836020036101000a031916815260200191505b509250505060405180910390f35b341561016357600080fd5b61016b61065e565b604051808273ffffffffffffffffffffffffffffffffffffffff1673ffffffffffffffffffffffffffffffffffffffff16815260200191505060405180910390f35b34156101b857600080fd5b6101e4600480803573ffffffffffffffffffffffffffffffffffffffff16906020019091905050610684565b005b34156101f157600080fd5b6101f9610723565b6040518080602001828103825283818151815260200191508051906020019080838360005b8381101561023957808201518184015260208101905061021e565b50505050905090810190601f1680156102665780820380516001836020036101000a031916815260200191505b509250505060405180910390f35b341561027f57600080fd5b6102ab600480803573ffffffffffffffffffffffffffffffffffffffff169060200190919050506107c1565b005b34156102b857600080fd5b6102c0610861565b604051808273ffffffffffffffffffffffffffffffffffffffff1673ffffffffffffffffffffffffffffffffffffffff16815260200191505060405180910390f35b341561030d57600080fd5b610315610886565b6040518082815260200191505060405180910390f35b341561033657600080fd5b61033e61088c565b604051808273ffffffffffffffffffffffffffffffffffffffff1673ffffffffffffffffffffffffffffffffffffffff16815260200191505060405180910390f35b341561038b57600080fd5b6103db600480803590602001908201803590602001908080601f016020809104026020016040519081016040528093929190818152602001838380828437820191505050505050919050506108b2565b005b34156103e857600080fd5b6103f0610928565b6040518080602001828103825283818151815260200191508051906020019080838360005b83811015610430578082015181840152602081019050610415565b50505050905090810190601f16801561045d5780820380516001836020036101000a031916815260200191505b509250505060405180910390f35b341561047657600080fd5b61047e6109c6565b6040518080602001828103825283818151815260200191508051906020019080838360005b838110156104be5780820151818401526020810190506104a3565b50505050905090810190601f1680156104eb5780820380516001836020036101000a031916815260200191505b509250505060405180910390f35b341561050457600080fd5b61050c610a64565b6040518080602001828103825283818151815260200191508051906020019080838360005b8381101561054c578082015181840152602081019050610531565b50505050905090810190601f1680156105795780820380516001836020036101000a031916815260200191505b509250505060405180910390f35b341561059257600080fd5b6105be600480803573ffffffffffffffffffffffffffffffffffffffff16906020019091905050610b02565b005b60098054600181600116156101000203166002900480601f0160208091040260200160405190810160405280929190818152602001828054600181600116156101000203166002900480156106565780601f1061062b57610100808354040283529160200191610656565b820191906000526020600020905b81548152906001019060200180831161063957829003601f168201915b505050505081565b600160009054906101000a900473ffffffffffffffffffffffffffffffffffffffff1681565b600560009054906101000a900473ffffffffffffffffffffffffffffffffffffffff1673ffffffffffffffffffffffffffffffffffffffff163373ffffffffffffffffffffffffffffffffffffffff161415156106e057600080fd5b806000806101000a81548173ffffffffffffffffffffffffffffffffffffffff021916908373ffffffffffffffffffffffffffffffffffffffff16021790555050565b60078054600181600116156101000203166002900480601f0160208091040260200160405190810160405280929190818152602001828054600181600116156101000203166002900480156107b95780601f1061078e576101008083540402835291602001916107b9565b820191906000526020600020905b81548152906001019060200180831161079c57829003601f168201915b505050505081565b600560009054906101000a900473ffffffffffffffffffffffffffffffffffffffff1673ffffffffffffffffffffffffffffffffffffffff163373ffffffffffffffffffffffffffffffffffffffff1614151561081d57600080fd5b80600160006101000a81548173ffffffffffffffffffffffffffffffffffffffff021916908373ffffffffffffffffffffffffffffffffffffffff16021790555050565b6000809054906101000a900473ffffffffffffffffffffffffffffffffffffffff1681565b60035481565b600260009054906101000a900473ffffffffffffffffffffffffffffffffffffffff1681565b600560009054906101000a900473ffffffffffffffffffffffffffffffffffffffff1673ffffffffffffffffffffffffffffffffffffffff163373ffffffffffffffffffffffffffffffffffffffff1614151561090e57600080fd5b8060049080519060200190610924929190610ba2565b5050565b60068054600181600116156101000203166002900480601f0160208091040260200160405190810160405280929190818152602001828054600181600116156101000203166002900480156109be5780601f10610993576101008083540402835291602001916109be565b820191906000526020600020905b8154815290600101906020018083116109a157829003601f168201915b505050505081565b60088054600181600116156101000203166002900480601f016020809104026020016040519081016040528092919081815260200182805460018160011615610100020316600290048015610a5c5780601f10610a3157610100808354040283529160200191610a5c565b820191906000526020600020905b815481529060010190602001808311610a3f57829003601f168201915b505050505081565b60048054600181600116156101000203166002900480601f016020809104026020016040519081016040528092919081815260200182805460018160011615610100020316600290048015610afa5780601f10610acf57610100808354040283529160200191610afa565b820191906000526020600020905b815481529060010190602001808311610add57829003601f168201915b505050505081565b600560009054906101000a900473ffffffffffffffffffffffffffffffffffffffff1673ffffffffffffffffffffffffffffffffffffffff163373ffffffffffffffffffffffffffffffffffffffff16141515610b5e57600080fd5b80600260006101000a81548173ffffffffffffffffffffffffffffffffffffffff021916908373ffffffffffffffffffffffffffffffffffffffff16021790555050565b828054600181600116156101000203166002900490600052602060002090601f016020900481019282601f10610be357805160ff1916838001178555610c11565b82800160010185558215610c11579182015b82811115610c10578251825591602001919060010190610bf5565b5b509050610c1e9190610c22565b5090565b610c4491905b80821115610c40576000816000905550600101610c28565b5090565b90565b33600560006101000a81548173ffffffffffffffffffffffffffffffffffffffff021916908373ffffffffffffffffffffffffffffffffffffffff1602179055508160069080519060200190610c9e929190610ba2565b508260079080519060200190610cb5929190610ba2565b508060099080519060200190610ccc929190610ba2565b505050505600a165627a7a723058209e43a24cacc125d238d18b49585f6f4236272895695690ff35c9dbfa1137b2760029",
  "source": "pragma solidity ^0.4.18;\n\ncontract Assertion {\n    \n    address public recipient;\n    address public issuer;\n    address public badge;\n    uint public issuedOn;\n    string public verificationType;\n\n    address owner;\n    string public id;\n    string public typeOb;\n    string public context = \"https://w3id.org/openbadges/v2\";\n    string public name;\n\n    modifier onlyOwner {\n        require(msg.sender == owner);\n        _;\n    }\n\n    function setProfile(string typeOB, string id1, string name1) private { \n        owner = msg.sender; \n        id = id1;\n        typeOb = typeOB;\n        name = name1;\n    }\n\n    function Assertion(string typeOb1, string id1, string name1, address issuer1, address badge1, address recipient1) public {\n        setProfile(typeOb1, id1, name1);\n        issuedOn = now;\n        issuer = issuer1;\n        badge = badge1;\n        recipient = recipient1;\n    }\n\n    function setRecipient(address recipient1) public onlyOwner {\n        recipient = recipient1;\n    }\n\n    function setIssuer(address issuer1) public onlyOwner {\n        issuer = issuer1;\n    }\n\n    function setBadge(address badge1) public onlyOwner {\n        badge = badge1;\n    }\n    \n    function setVerificationType(string verificationType1) public onlyOwner {\n        verificationType = verificationType1;\n    }\n}\n",
  "sourcePath": "/Users/marc/truffle/innovatielab/drizzle-demo/contracts/Assertion.sol",
  "compiler": {
    "name": "solc",
    "version": "0.4.18+commit.9cf6e910.Emscripten.clang"
  },
  "schemaVersion": "1.0.1",
  "updatedAt": "2018-03-04T16:22:52.438Z"
}