{
  "contractName": "Issuer",
  "abi": [
    {
      "constant": true,
      "inputs": [],
      "name": "name",
      "outputs": [
        {
          "name": "",
          "type": "string"
        }
      ],
      "payable": false,
      "stateMutability": "view",
      "type": "function"
    },
    {
      "constant": true,
      "inputs": [],
      "name": "typeOb",
      "outputs": [
        {
          "name": "",
          "type": "string"
        }
      ],
      "payable": false,
      "stateMutability": "view",
      "type": "function"
    },
    {
      "constant": true,
      "inputs": [],
      "name": "id",
      "outputs": [
        {
          "name": "",
          "type": "string"
        }
      ],
      "payable": false,
      "stateMutability": "view",
      "type": "function"
    },
    {
      "constant": true,
      "inputs": [],
      "name": "context",
      "outputs": [
        {
          "name": "",
          "type": "string"
        }
      ],
      "payable": false,
      "stateMutability": "view",
      "type": "function"
    },
    {
      "inputs": [
        {
          "name": "typeOb1",
          "type": "string"
        },
        {
          "name": "id1",
          "type": "string"
        },
        {
          "name": "name1",
          "type": "string"
        }
      ],
      "payable": false,
      "stateMutability": "nonpayable",
      "type": "constructor"
    }
  ],
  "bytecode": "0x60606040526040805190810160405280601e81526020017f68747470733a2f2f773369642e6f72672f6f70656e6261646765732f763200008152506003908051906020019061004f929190610139565b50341561005b57600080fd5b60405161085f38038061085f833981016040528080518201919060200180518201919060200180518201919050506100a78383836100af64010000000002610517176401000000009004565b5050506101de565b336000806101000a81548173ffffffffffffffffffffffffffffffffffffffff021916908373ffffffffffffffffffffffffffffffffffffffff1602179055508160019080519060200190610105929190610139565b50826002908051906020019061011c929190610139565b508060049080519060200190610133929190610139565b50505050565b828054600181600116156101000203166002900490600052602060002090601f016020900481019282601f1061017a57805160ff19168380011785556101a8565b828001600101855582156101a8579182015b828111156101a757825182559160200191906001019061018c565b5b5090506101b591906101b9565b5090565b6101db91905b808211156101d75760008160009055506001016101bf565b5090565b90565b610672806101ed6000396000f300606060405260043610610062576000357c0100000000000000000000000000000000000000000000000000000000900463ffffffff16806306fdde03146100675780634391c74a146100f5578063af640d0f14610183578063d0496d6a14610211575b600080fd5b341561007257600080fd5b61007a61029f565b6040518080602001828103825283818151815260200191508051906020019080838360005b838110156100ba57808201518184015260208101905061009f565b50505050905090810190601f1680156100e75780820380516001836020036101000a031916815260200191505b509250505060405180910390f35b341561010057600080fd5b61010861033d565b6040518080602001828103825283818151815260200191508051906020019080838360005b8381101561014857808201518184015260208101905061012d565b50505050905090810190601f1680156101755780820380516001836020036101000a031916815260200191505b509250505060405180910390f35b341561018e57600080fd5b6101966103db565b6040518080602001828103825283818151815260200191508051906020019080838360005b838110156101d65780820151818401526020810190506101bb565b50505050905090810190601f1680156102035780820380516001836020036101000a031916815260200191505b509250505060405180910390f35b341561021c57600080fd5b610224610479565b6040518080602001828103825283818151815260200191508051906020019080838360005b83811015610264578082015181840152602081019050610249565b50505050905090810190601f1680156102915780820380516001836020036101000a031916815260200191505b509250505060405180910390f35b60048054600181600116156101000203166002900480601f0160208091040260200160405190810160405280929190818152602001828054600181600116156101000203166002900480156103355780601f1061030a57610100808354040283529160200191610335565b820191906000526020600020905b81548152906001019060200180831161031857829003601f168201915b505050505081565b60028054600181600116156101000203166002900480601f0160208091040260200160405190810160405280929190818152602001828054600181600116156101000203166002900480156103d35780601f106103a8576101008083540402835291602001916103d3565b820191906000526020600020905b8154815290600101906020018083116103b657829003601f168201915b505050505081565b60018054600181600116156101000203166002900480601f0160208091040260200160405190810160405280929190818152602001828054600181600116156101000203166002900480156104715780601f1061044657610100808354040283529160200191610471565b820191906000526020600020905b81548152906001019060200180831161045457829003601f168201915b505050505081565b60038054600181600116156101000203166002900480601f01602080910402602001604051908101604052809291908181526020018280546001816001161561010002031660029004801561050f5780601f106104e45761010080835404028352916020019161050f565b820191906000526020600020905b8154815290600101906020018083116104f257829003601f168201915b505050505081565b336000806101000a81548173ffffffffffffffffffffffffffffffffffffffff021916908373ffffffffffffffffffffffffffffffffffffffff160217905550816001908051906020019061056d9291906105a1565b5082600290805190602001906105849291906105a1565b50806004908051906020019061059b9291906105a1565b50505050565b828054600181600116156101000203166002900490600052602060002090601f016020900481019282601f106105e257805160ff1916838001178555610610565b82800160010185558215610610579182015b8281111561060f5782518255916020019190600101906105f4565b5b50905061061d9190610621565b5090565b61064391905b8082111561063f576000816000905550600101610627565b5090565b905600a165627a7a7230582060dfcbd6030392b5b8be2d3253b548e0ea200fa00dc119fa415b9489fa45cdf40029",
  "source": "pragma solidity ^0.4.18;\n\ncontract Issuer {\n    address owner;\n    string public id;\n    string public typeOb;\n    string public context = \"https://w3id.org/openbadges/v2\";\n    string public name;\n\n    function setProfile(string typeOB, string id1, string name1) private { \n        owner = msg.sender; \n        id = id1;\n        typeOb = typeOB;\n        name = name1;\n    }\n\n    function Issuer(string typeOb1, string id1, string name1) public {\n        setProfile(typeOb1, id1, name1);\n    }\n}",
  "sourcePath": "/Users/marc/truffle/innovatielab/drizzle-demo/contracts/Issuer.sol",
  "compiler": {
    "name": "solc",
    "version": "0.4.18+commit.9cf6e910.Emscripten.clang"
  },
  "schemaVersion": "1.0.1",
  "updatedAt": "2018-03-04T16:22:52.437Z"
}