{
  "contractName": "OpenBadges",
  "abi": [
    {
      "constant": true,
      "inputs": [
        {
          "name": "recipient",
          "type": "address"
        },
        {
          "name": "nr",
          "type": "uint256"
        }
      ],
      "name": "getBadge",
      "outputs": [
        {
          "name": "",
          "type": "address"
        }
      ],
      "payable": false,
      "stateMutability": "view",
      "type": "function"
    },
    {
      "constant": false,
      "inputs": [
        {
          "name": "issuer",
          "type": "address"
        },
        {
          "name": "recipient",
          "type": "address"
        },
        {
          "name": "badgeClass",
          "type": "address"
        }
      ],
      "name": "assertBadge",
      "outputs": [],
      "payable": false,
      "stateMutability": "nonpayable",
      "type": "function"
    }
  ],
  "bytecode": "0x6060604052341561000f57600080fd5b6103bc8061001e6000396000f30060606040526004361061004b576000357c0100000000000000000000000000000000000000000000000000000000900463ffffffff1680623646fc14610050578063b54aeefd146100d2575b600080fd5b341561005b57600080fd5b610090600480803573ffffffffffffffffffffffffffffffffffffffff16906020019091908035906020019091905050610149565b604051808273ffffffffffffffffffffffffffffffffffffffff1673ffffffffffffffffffffffffffffffffffffffff16815260200191505060405180910390f35b34156100dd57600080fd5b610147600480803573ffffffffffffffffffffffffffffffffffffffff1690602001909190803573ffffffffffffffffffffffffffffffffffffffff1690602001909190803573ffffffffffffffffffffffffffffffffffffffff169060200190919050506101c3565b005b60008060008473ffffffffffffffffffffffffffffffffffffffff1673ffffffffffffffffffffffffffffffffffffffff168152602001908152602001600020600083815260200190815260200160002060009054906101000a900473ffffffffffffffffffffffffffffffffffffffff16905092915050565b8073ffffffffffffffffffffffffffffffffffffffff166355cc4e57846040518263ffffffff167c0100000000000000000000000000000000000000000000000000000000028152600401808273ffffffffffffffffffffffffffffffffffffffff1673ffffffffffffffffffffffffffffffffffffffff168152602001915050600060405180830381600087803b151561025d57600080fd5b6102c65a03f1151561026e57600080fd5b50505060018060008473ffffffffffffffffffffffffffffffffffffffff1673ffffffffffffffffffffffffffffffffffffffff16815260200190815260200160002060008282540192505081905550806000808473ffffffffffffffffffffffffffffffffffffffff1673ffffffffffffffffffffffffffffffffffffffff1681526020019081526020016000206000600160008673ffffffffffffffffffffffffffffffffffffffff1673ffffffffffffffffffffffffffffffffffffffff16815260200190815260200160002054815260200190815260200160002060006101000a81548173ffffffffffffffffffffffffffffffffffffffff021916908373ffffffffffffffffffffffffffffffffffffffff1602179055505050505600a165627a7a723058201995ec82d720dd592f6b4a612faf93b63a7ebbb119ae67f7fa4c73729320c65f0029",
  "source": "pragma solidity ^0.4.18;\n\nimport './BadgeClass.sol';\n\ncontract OpenBadges {\n\tmapping (address => mapping(uint => address)) badge;\n    mapping (address => uint) lastBadge;\n\n\tfunction assertBadge(address issuer, address recipient, address badgeClass) public {\n\t\tBadgeClass(badgeClass).setIssuer(issuer);\n        lastBadge[recipient] += 1;\n\t\tbadge[recipient][lastBadge[recipient]] = badgeClass;\n\t}\n\n\tfunction getBadge(address recipient, uint nr) public view returns(address) {\n    \treturn badge[recipient][nr];\n    }\n}",
  "sourcePath": "/Users/marc/truffle/innovatielab/drizzle-demo/contracts/OpenBadges.sol",
  "compiler": {
    "name": "solc",
    "version": "0.4.18+commit.9cf6e910.Emscripten.clang"
  },
  "schemaVersion": "1.0.1",
  "updatedAt": "2018-03-04T16:22:52.439Z"
}